{
  "contractName": "SimpleStorage",
  "abi": [
    {
      "constant": true,
      "inputs": [
        {
          "internalType": "string",
          "name": "ipfsHash",
          "type": "string"
        }
      ],
      "name": "getImageAccess",
      "outputs": [
        {
          "internalType": "int256[512][]",
          "name": "",
          "type": "int256[512][]"
        }
      ],
      "payable": false,
      "stateMutability": "view",
      "type": "function"
    },
    {
      "constant": false,
      "inputs": [
        {
          "internalType": "string",
          "name": "ipfsHash",
          "type": "string"
        },
        {
          "internalType": "int256[512]",
          "name": "account",
          "type": "int256[512]"
        }
      ],
      "name": "setImageAccess",
      "outputs": [],
      "payable": false,
      "stateMutability": "nonpayable",
      "type": "function"
    },
    {
      "constant": true,
      "inputs": [
        {
          "internalType": "string",
          "name": "account",
          "type": "string"
        }
      ],
      "name": "getShared",
      "outputs": [
        {
          "internalType": "int256[512][]",
          "name": "",
          "type": "int256[512][]"
        }
      ],
      "payable": false,
      "stateMutability": "view",
      "type": "function"
    },
    {
      "constant": false,
      "inputs": [
        {
          "internalType": "string",
          "name": "account",
          "type": "string"
        },
        {
          "internalType": "int256[512]",
          "name": "hash",
          "type": "int256[512]"
        }
      ],
      "name": "setShared",
      "outputs": [],
      "payable": false,
      "stateMutability": "nonpayable",
      "type": "function"
    },
    {
      "constant": false,
      "inputs": [
        {
          "internalType": "string",
          "name": "account",
          "type": "string"
        },
        {
          "internalType": "int256[512]",
          "name": "hash",
          "type": "int256[512]"
        },
        {
          "internalType": "string",
          "name": "ipfsHash",
          "type": "string"
        },
        {
          "internalType": "int256[512]",
          "name": "account_hash",
          "type": "int256[512]"
        }
      ],
      "name": "shareAccess",
      "outputs": [],
      "payable": false,
      "stateMutability": "nonpayable",
      "type": "function"
    },
    {
      "constant": false,
      "inputs": [
        {
          "internalType": "string",
          "name": "account",
          "type": "string"
        },
        {
          "internalType": "int256[512]",
          "name": "hash",
          "type": "int256[512]"
        }
      ],
      "name": "removeShared",
      "outputs": [],
      "payable": false,
      "stateMutability": "nonpayable",
      "type": "function"
    },
    {
      "constant": false,
      "inputs": [
        {
          "internalType": "string",
          "name": "ipfsHash",
          "type": "string"
        },
        {
          "internalType": "int256[512]",
          "name": "account",
          "type": "int256[512]"
        }
      ],
      "name": "removeImageAccess",
      "outputs": [],
      "payable": false,
      "stateMutability": "nonpayable",
      "type": "function"
    },
    {
      "constant": false,
      "inputs": [
        {
          "internalType": "string",
          "name": "account",
          "type": "string"
        },
        {
          "internalType": "int256[512]",
          "name": "hash",
          "type": "int256[512]"
        },
        {
          "internalType": "string",
          "name": "ipfsHash",
          "type": "string"
        },
        {
          "internalType": "int256[512]",
          "name": "account_hash",
          "type": "int256[512]"
        }
      ],
      "name": "removeAccess",
      "outputs": [],
      "payable": false,
      "stateMutability": "nonpayable",
      "type": "function"
    },
    {
      "constant": true,
      "inputs": [
        {
          "internalType": "string",
          "name": "ipfsHash",
          "type": "string"
        }
      ],
      "name": "getOwner",
      "outputs": [
        {
          "internalType": "string",
          "name": "",
          "type": "string"
        }
      ],
      "payable": false,
      "stateMutability": "view",
      "type": "function"
    },
    {
      "constant": false,
      "inputs": [
        {
          "internalType": "string",
          "name": "ipfsHash",
          "type": "string"
        },
        {
          "internalType": "string",
          "name": "account",
          "type": "string"
        }
      ],
      "name": "setOwner",
      "outputs": [],
      "payable": false,
      "stateMutability": "nonpayable",
      "type": "function"
    },
    {
      "constant": true,
      "inputs": [
        {
          "internalType": "string",
          "name": "ipfsHash",
          "type": "string"
        }
      ],
      "name": "getTitle",
      "outputs": [
        {
          "internalType": "string",
          "name": "",
          "type": "string"
        }
      ],
      "payable": false,
      "stateMutability": "view",
      "type": "function"
    },
    {
      "constant": false,
      "inputs": [
        {
          "internalType": "string",
          "name": "ipfsHash",
          "type": "string"
        },
        {
          "internalType": "string",
          "name": "_title",
          "type": "string"
        }
      ],
      "name": "setTitle",
      "outputs": [],
      "payable": false,
      "stateMutability": "nonpayable",
      "type": "function"
    },
    {
      "constant": true,
      "inputs": [],
      "name": "getIpfsHashes",
      "outputs": [
        {
          "internalType": "int256[512][]",
          "name": "",
          "type": "int256[512][]"
        }
      ],
      "payable": false,
      "stateMutability": "view",
      "type": "function"
    },
    {
      "constant": false,
      "inputs": [
        {
          "internalType": "int256[512]",
          "name": "newValue",
          "type": "int256[512]"
        }
      ],
      "name": "pushToIpfsHashes",
      "outputs": [],
      "payable": false,
      "stateMutability": "nonpayable",
      "type": "function"
    },
    {
      "constant": true,
      "inputs": [],
      "name": "getIpfsHashesPublic",
      "outputs": [
        {
          "internalType": "int256[512][]",
          "name": "",
          "type": "int256[512][]"
        }
      ],
      "payable": false,
      "stateMutability": "view",
      "type": "function"
    },
    {
      "constant": false,
      "inputs": [
        {
          "internalType": "int256[512]",
          "name": "newValue",
          "type": "int256[512]"
        }
      ],
      "name": "pushToIpfsHashesPublic",
      "outputs": [],
      "payable": false,
      "stateMutability": "nonpayable",
      "type": "function"
    },
    {
      "constant": false,
      "inputs": [
        {
          "internalType": "string",
          "name": "ipfsHash",
          "type": "string"
        }
      ],
      "name": "setPresentInIpfsHashesPublic",
      "outputs": [],
      "payable": false,
      "stateMutability": "nonpayable",
      "type": "function"
    },
    {
      "constant": true,
      "inputs": [
        {
          "internalType": "string",
          "name": "ipfsHash",
          "type": "string"
        }
      ],
      "name": "getAcessibility",
      "outputs": [
        {
          "internalType": "bool",
          "name": "",
          "type": "bool"
        }
      ],
      "payable": false,
      "stateMutability": "view",
      "type": "function"
    },
    {
      "constant": false,
      "inputs": [
        {
          "internalType": "int256[512]",
          "name": "newValue",
          "type": "int256[512]"
        },
        {
          "internalType": "string",
          "name": "ipfsHash",
          "type": "string"
        },
        {
          "internalType": "string",
          "name": "account",
          "type": "string"
        },
        {
          "internalType": "string",
          "name": "_title",
          "type": "string"
        }
      ],
      "name": "uploadToPublic",
      "outputs": [],
      "payable": false,
      "stateMutability": "nonpayable",
      "type": "function"
    },
    {
      "constant": false,
      "inputs": [
        {
          "internalType": "int256[512]",
          "name": "newValue",
          "type": "int256[512]"
        },
        {
          "internalType": "string",
          "name": "ipfsHash",
          "type": "string"
        },
        {
          "internalType": "string",
          "name": "account",
          "type": "string"
        },
        {
          "internalType": "string",
          "name": "_title",
          "type": "string"
        }
      ],
      "name": "uploadToPrivate",
      "outputs": [],
      "payable": false,
      "stateMutability": "nonpayable",
      "type": "function"
    }
  ],
  "bytecode": "0x608060405234801561001057600080fd5b5061180f806100206000396000f3fe608060405234801561001057600080fd5b506004361061012c5760003560e01c80636deae5f7116100ad578063d7c165ec11610071578063d7c165ec1461033b578063dc8e9a1514610357578063f6e4c60014610373578063f893696114610391578063fea628bd146103ad5761012c565b80636deae5f71461029b578063a96ce102146102b7578063b31ddca0146102e7578063b383140b14610303578063b52619c71461031f5761012c565b80634aaf4a12116100f45780634aaf4a12146101e75780634e6ea93b14610217578063562890cc14610233578063657a7ede1461024f578063659f7c4b1461027f5761012c565b8063139d0d7c1461013157806315718569146101615780631b46e49c1461017f578063213f2874146101af57806333caf1c1146101cb575b600080fd5b61014b6004803603610146919081019061111e565b6103c9565b604051610158919061154f565b60405180910390f35b61016961047a565b604051610176919061154f565b60405180910390f35b6101996004803603610194919081019061111e565b61050d565b6040516101a6919061158c565b60405180910390f35b6101c960048036036101c491908101906111b4565b6105cd565b005b6101e560048036036101e09190810190611045565b6105e7565b005b61020160048036036101fc919081019061111e565b61062a565b60405161020e919061158c565b60405180910390f35b610231600480360361022c919081019061115f565b6106ea565b005b61024d6004803603610248919081019061124a565b6108af565b005b6102696004803603610264919081019061111e565b6108e6565b604051610276919061154f565b60405180910390f35b6102996004803603610294919081019061115f565b610997565b005b6102b560048036036102b0919081019061106f565b610b5c565b005b6102d160048036036102cc919081019061111e565b610b7f565b6040516102de9190611571565b60405180910390f35b61030160048036036102fc919081019061111e565b610bb4565b005b61031d6004803603610318919081019061115f565b610bee565b005b6103396004803603610334919081019061115f565b610c4e565b005b6103556004803603610350919081019061106f565b610cae565b005b610371600480360361036c919081019061124a565b610ce3565b005b61037b610d1a565b604051610388919061154f565b60405180910390f35b6103ab60048036036103a691908101906111b4565b610dad565b005b6103c760048036036103c29190810190611045565b610dc7565b005b60606006826040516103db9190611538565b9081526020016040518091039020805480602002602001604051908101604052809291908181526020016000905b8282101561046f578382906000526020600020906102000201610200806020026040519081016040528092919082610200801561045b576020028201915b815481526020019060010190808311610447575b505050505081526020019060010190610409565b505050509050919050565b60606001805480602002602001604051908101604052809291908181526020016000905b8282101561050457838290600052602060002090610200020161020080602002604051908101604052809291908261020080156104f0576020028201915b8154815260200190600101908083116104dc575b50505050508152602001906001019061049e565b50505050905090565b606060048260405161051f9190611538565b90815260200160405180910390208054600181600116156101000203166002900480601f0160208091040260200160405190810160405280929190818152602001828054600181600116156101000203166002900480156105c15780601f10610596576101008083540402835291602001916105c1565b820191906000526020600020905b8154815290600101906020018083116105a457829003601f168201915b50505050509050919050565b6105d78484610bee565b6105e18282610c4e565b50505050565b600181908060018154018082558091505090600182039060005260206000209061020002016000909192909190915090610200610625929190610e0a565b505050565b606060038260405161063c9190611538565b90815260200160405180910390208054600181600116156101000203166002900480601f0160208091040260200160405190810160405280929190818152602001828054600181600116156101000203166002900480156106de5780601f106106b3576101008083540402835291602001916106de565b820191906000526020600020905b8154815290600101906020018083116106c157829003601f168201915b50505050509050919050565b600080600090505b6006846040516107029190611538565b9081526020016040518091039020805490508110156107bb578260405160200161072c9190611500565b604051602081830303815290604052805190602001206006856040516107529190611538565b9081526020016040518091039020828154811061076b57fe5b90600052602060002090610200020160405160200161078a919061151c565b6040516020818303038152906040528051906020012014156107ae578091506107bb565b80806001019150506106f2565b506006836040516107cc9190611538565b908152602001604051809103902060016006856040516107ec9190611538565b908152602001604051809103902080549050038154811061080957fe5b9060005260206000209061020002016006846040516108289190611538565b9081526020016040518091039020828154811061084157fe5b9060005260206000209061020002019061020061085f929190610e4b565b506006836040516108709190611538565b908152602001604051809103902080548061088757fe5b60019003818190600052602060002090610200020160006108a89190610e89565b9055505050565b806003836040516108c09190611538565b908152602001604051809103902090805190602001906108e1929190610e9d565b505050565b60606005826040516108f89190611538565b9081526020016040518091039020805480602002602001604051908101604052809291908181526020016000905b8282101561098c5783829060005260206000209061020002016102008060200260405190810160405280929190826102008015610978576020028201915b815481526020019060010190808311610964575b505050505081526020019060010190610926565b505050509050919050565b600080600090505b6005846040516109af9190611538565b908152602001604051809103902080549050811015610a6857826040516020016109d99190611500565b604051602081830303815290604052805190602001206005856040516109ff9190611538565b90815260200160405180910390208281548110610a1857fe5b906000526020600020906102000201604051602001610a37919061151c565b604051602081830303815290604052805190602001201415610a5b57809150610a68565b808060010191505061099f565b50600583604051610a799190611538565b90815260200160405180910390206001600585604051610a999190611538565b9081526020016040518091039020805490500381548110610ab657fe5b906000526020600020906102000201600584604051610ad59190611538565b90815260200160405180910390208281548110610aee57fe5b90600052602060002090610200020190610200610b0c929190610e4b565b50600583604051610b1d9190611538565b9081526020016040518091039020805480610b3457fe5b6001900381819060005260206000209061020002016000610b559190610e89565b9055505050565b610b6584610dc7565b610b6f83836108af565b610b798382610ce3565b50505050565b6000600282604051610b919190611538565b908152602001604051809103902060009054906101000a900460ff169050919050565b6001600282604051610bc69190611538565b908152602001604051809103902060006101000a81548160ff02191690831515021790555050565b600582604051610bfe9190611538565b908152602001604051809103902081908060018154018082558091505090600182039060005260206000209061020002016000909192909190915090610200610c48929190610e0a565b50505050565b600682604051610c5e9190611538565b908152602001604051809103902081908060018154018082558091505090600182039060005260206000209061020002016000909192909190915090610200610ca8929190610e0a565b50505050565b610cb7846105e7565b610cc084610dc7565b610cca83836108af565b610cd48382610ce3565b610cdd83610bb4565b50505050565b80600483604051610cf49190611538565b90815260200160405180910390209080519060200190610d15929190610e9d565b505050565b60606000805480602002602001604051908101604052809291908181526020016000905b82821015610da45783829060005260206000209061020002016102008060200260405190810160405280929190826102008015610d90576020028201915b815481526020019060010190808311610d7c575b505050505081526020019060010190610d3e565b50505050905090565b610db78484610997565b610dc182826106ea565b50505050565b600081908060018154018082558091505090600182039060005260206000209061020002016000909192909190915090610200610e05929190610e0a565b505050565b826102008101928215610e3a579160200282015b82811115610e39578251825591602001919060010190610e1e565b5b509050610e479190610f1d565b5090565b826102008101928215610e78579182015b82811115610e77578254825591600101919060010190610e5c565b5b509050610e859190610f1d565b5090565b50806102000190610e9a9190610f1d565b50565b828054600181600116156101000203166002900490600052602060002090601f016020900481019282601f10610ede57805160ff1916838001178555610f0c565b82800160010185558215610f0c579182015b82811115610f0b578251825591602001919060010190610ef0565b5b509050610f199190610f42565b5090565b610f3f91905b80821115610f3b576000816000905550600101610f23565b5090565b90565b610f6491905b80821115610f60576000816000905550600101610f48565b5090565b90565b600082601f830112610f7857600080fd5b610200610f8c610f87826115db565b6115ae565b91508183856020840282011115610fa257600080fd5b60005b83811015610fd25781610fb88882610fdc565b845260208401935060208301925050600181019050610fa5565b5050505092915050565b600081359050610feb816117b5565b92915050565b600082601f83011261100257600080fd5b8135611015611010826115fd565b6115ae565b9150808252602083016020830185838301111561103157600080fd5b61103c838284611728565b50505092915050565b6000614000828403121561105857600080fd5b600061106684828501610f67565b91505092915050565b600080600080614060858703121561108657600080fd5b600061109487828801610f67565b94505061400085013567ffffffffffffffff8111156110b257600080fd5b6110be87828801610ff1565b93505061402085013567ffffffffffffffff8111156110dc57600080fd5b6110e887828801610ff1565b92505061404085013567ffffffffffffffff81111561110657600080fd5b61111287828801610ff1565b91505092959194509250565b60006020828403121561113057600080fd5b600082013567ffffffffffffffff81111561114a57600080fd5b61115684828501610ff1565b91505092915050565b600080614020838503121561117357600080fd5b600083013567ffffffffffffffff81111561118d57600080fd5b61119985828601610ff1565b92505060206111aa85828601610f67565b9150509250929050565b60008060008061804085870312156111cb57600080fd5b600085013567ffffffffffffffff8111156111e557600080fd5b6111f187828801610ff1565b945050602061120287828801610f67565b93505061402085013567ffffffffffffffff81111561122057600080fd5b61122c87828801610ff1565b92505061404061123e87828801610f67565b91505092959194509250565b6000806040838503121561125d57600080fd5b600083013567ffffffffffffffff81111561127757600080fd5b61128385828601610ff1565b925050602083013567ffffffffffffffff8111156112a057600080fd5b6112ac85828601610ff1565b9150509250929050565b60006112c283836113b4565b6140008301905092915050565b60006112db8383611478565b60208301905092915050565b60006112f38383611487565b60208301905092915050565b600061130a82611657565b61131481856116c5565b935061131f83611629565b8060005b8381101561135057815161133788826112b6565b975061134283611691565b925050600181019050611323565b5085935050505092915050565b6113668161166e565b61137081846116e1565b925061137b82611643565b8060005b838110156113ac57815161139387826112e7565b965061139e836116ab565b92505060018101905061137f565b505050505050565b6113bd81611662565b6113c781846116d6565b92506113d282611639565b8060005b838110156114035781516113ea87826112cf565b96506113f58361169e565b9250506001810190506113d6565b505050505050565b6114148161167a565b61141e81846116e1565b92506114298261164d565b8060005b838110156114615761143e82611784565b61144887826112e7565b9650611453836116b8565b92505060018101905061142d565b505050505050565b61147281611712565b82525050565b6114818161171e565b82525050565b6114908161171e565b82525050565b60006114a182611686565b6114ab81856116ec565b93506114bb818560208601611737565b6114c481611797565b840191505092915050565b60006114da82611686565b6114e481856116fd565b93506114f4818560208601611737565b80840191505092915050565b600061150c828461135d565b6140008201915081905092915050565b6000611528828461140b565b6140008201915081905092915050565b600061154482846114cf565b915081905092915050565b6000602082019050818103600083015261156981846112ff565b905092915050565b60006020820190506115866000830184611469565b92915050565b600060208201905081810360008301526115a68184611496565b905092915050565b6000604051905081810181811067ffffffffffffffff821117156115d157600080fd5b8060405250919050565b600067ffffffffffffffff8211156115f257600080fd5b602082029050919050565b600067ffffffffffffffff82111561161457600080fd5b601f19601f8301169050602081019050919050565b6000819050602082019050919050565b6000819050919050565b6000819050919050565b6000819050919050565b600081519050919050565b60006102009050919050565b60006102009050919050565b60006102009050919050565b600081519050919050565b6000602082019050919050565b6000602082019050919050565b6000602082019050919050565b6000600182019050919050565b600082825260208201905092915050565b600081905092915050565b600081905092915050565b600082825260208201905092915050565b600081905092915050565b6000819050919050565b60008115159050919050565b6000819050919050565b82818337600083830152505050565b60005b8381101561175557808201518184015260208101905061173a565b83811115611764576000848401525b50505050565b600061177d611778836117a8565b611708565b9050919050565b6000611790825461176a565b9050919050565b6000601f19601f8301169050919050565b60008160001c9050919050565b6117be8161171e565b81146117c957600080fd5b5056fea365627a7a723158208617e459a9f4db7c1ba5f05eea1ba4691e274ac477be6a393517329185015f8f6c6578706572696d656e74616cf564736f6c63430005100040",
  "source": "pragma experimental ABIEncoderV2;\n\ncontract SimpleStorage {\n\n    //list of all images/files\n    int [512] [] private ipfsHashes;\n    \n    //list of all public images/files\n    int [512] [] private ipfsHashesPublic;\n\n    //map for storing whether image is public or not\n    mapping(string => bool) presentInIpfsHashesPublic;\n\n    //map for storing owner information of every image/file\n    mapping (string => string) private owner;\n\n    //map for storing title information of every image/file\n    mapping (string => string) private title;\n\n    //map for storing 'shared with me' information of every account\n    mapping (string => int [512][]) private shared;\n\n    //map for storing list of all accounts which have access of current image/file\n    mapping (string => int [512][]) private imageAccess;\n\n    //getter for image access map\n    function getImageAccess(string memory ipfsHash) public view returns (int [512][] memory) {\n        return imageAccess[ipfsHash];\n    }\n\n    //setter for image access map\n    function setImageAccess(string memory ipfsHash, int [512] memory account) public {\n        imageAccess[ipfsHash].push(account);\n    }\n    \n    //getter for shared map\n    function getShared(string memory account) public view returns (int [512][] memory) {\n        return shared[account];\n    }\n\n    //setter for shared map\n    function setShared(string memory account, int [512] memory hash) public {\n        shared[account].push(hash);\n    }\n\n    //function to combine multiple transaction calls into single transaction\n    function shareAccess(string memory account, int [512] memory hash, string memory ipfsHash, int [512] memory account_hash) public {\n        setShared(account, hash);\n        setImageAccess(ipfsHash, account_hash);\n    }\n\n    //deletion from shared map\n    function removeShared(string memory account, int [512] memory hash) public {\n        \n        //Find Index of Element to be deleted\n        uint deletion_index;\n        for(uint i=0; i<shared[account].length;i++){\n            if( keccak256(abi.encodePacked(shared[account][i])) == keccak256(abi.encodePacked(hash))){\n                deletion_index = i;\n                break;\n            }\n        }\n\n        //Delete Element\n        shared[account][deletion_index] = shared[account][shared[account].length-1];\n        shared[account].pop();\n    }\n\n    //deletion from image access map\n    function removeImageAccess(string memory ipfsHash, int [512] memory account) public {\n\n        //Find Index of Element to be deleted\n        uint deletion_index;\n        for(uint i=0; i<imageAccess[ipfsHash].length;i++){\n            if( keccak256(abi.encodePacked(imageAccess[ipfsHash][i])) == keccak256(abi.encodePacked(account))){\n                deletion_index = i;\n                break;\n            }\n        }\n\n        //Delete Element\n        imageAccess[ipfsHash][deletion_index] = imageAccess[ipfsHash][imageAccess[ipfsHash].length-1];\n        imageAccess[ipfsHash].pop();\n    }\n\n    //function to combine multiple transaction calls into single transaction\n    function removeAccess(string memory account, int [512] memory hash, string memory ipfsHash, int [512] memory account_hash) public {\n        removeShared(account, hash);\n        removeImageAccess(ipfsHash, account_hash);\n    }\n\n    //getter for owner map\n    function getOwner(string memory ipfsHash) public view returns (string memory) {\n        return owner[ipfsHash];\n    }\n\n    //setter for owner map\n    function setOwner(string memory ipfsHash, string memory account) public {\n        owner[ipfsHash] = account;\n    }\n\n    //getter for title map\n    function getTitle(string memory ipfsHash) public view returns (string memory) {\n        return title[ipfsHash];\n    }\n\n    //setter for title map\n    function setTitle(string memory ipfsHash, string memory _title) public {\n        title[ipfsHash] = _title;\n    }\n\n    //getter for IPFS hashes\n    function getIpfsHashes() public view returns (int [512][] memory) {\n        return ipfsHashes;\n    }\n\n    //setter for IPFS hashes\n    function pushToIpfsHashes(int [512] memory newValue) public {\n        ipfsHashes.push(newValue);\n    }\n\n    //getter for Public IPFS hashes\n    function getIpfsHashesPublic() public view returns (int [512][] memory) {\n        return ipfsHashesPublic;\n    }\n\n    //setter for Public IPFS hashes\n    function pushToIpfsHashesPublic(int [512] memory newValue) public {\n        ipfsHashesPublic.push(newValue);\n    }\n\n    //setter for presentInIpfsHashesPrivate Map\n    function setPresentInIpfsHashesPublic(string memory ipfsHash) public{\n        presentInIpfsHashesPublic[ipfsHash] = true;\n    }\n\n    function getAcessibility(string memory ipfsHash) public view returns (bool){\n        return presentInIpfsHashesPublic[ipfsHash];\n    }\n\n    //function to combine multiple transaction calls into single transaction\n    //In Case of Public: Push to IpfsHashes as well as IpfsHashesPublic\n    function uploadToPublic(int [512] memory newValue, string memory ipfsHash, string memory account, string memory _title) public {\n        pushToIpfsHashesPublic(newValue);\n        pushToIpfsHashes(newValue);\n        setOwner(ipfsHash, account);\n        setTitle(ipfsHash, _title);\n        setPresentInIpfsHashesPublic(ipfsHash);\n    }\n\n    //function to combine multiple transaction calls into single transaction\n    //In Case of Private: Push to only IpfsHashes\n    function uploadToPrivate(int [512] memory newValue, string memory ipfsHash, string memory account, string memory _title) public {\n        pushToIpfsHashes(newValue);\n        setOwner(ipfsHash, account);\n        setTitle(ipfsHash, _title);\n    }\n}\n",
  "sourcePath": "/Users/prateeksharma/Documents/Projects/ipfs_image_uploader/contracts/SimpleStorage.sol",
  "compiler": {
    "name": "solc",
    "version": "0.5.16+commit.9c3226ce.Emscripten.clang"
  },
  "schemaVersion": "3.4.6",
  "updatedAt": "2022-05-03T15:54:30.853Z",
  "networkType": "ethereum",
  "devdoc": {
    "methods": {}
  },
  "userdoc": {
    "methods": {}
  }
}