{
  "contractName": "SimpleStorage",
  "abi": [
    {
      "constant": true,
      "inputs": [
        {
          "internalType": "string",
          "name": "account",
          "type": "string"
        }
      ],
      "name": "getShared",
      "outputs": [
        {
          "internalType": "int256[512][]",
          "name": "",
          "type": "int256[512][]"
        }
      ],
      "payable": false,
      "stateMutability": "view",
      "type": "function"
    },
    {
      "constant": false,
      "inputs": [
        {
          "internalType": "string",
          "name": "account",
          "type": "string"
        },
        {
          "internalType": "int256[512]",
          "name": "hash",
          "type": "int256[512]"
        }
      ],
      "name": "setShared",
      "outputs": [],
      "payable": false,
      "stateMutability": "nonpayable",
      "type": "function"
    },
    {
      "constant": true,
      "inputs": [
        {
          "internalType": "string",
          "name": "ipfsHash",
          "type": "string"
        }
      ],
      "name": "getOwner",
      "outputs": [
        {
          "internalType": "string",
          "name": "",
          "type": "string"
        }
      ],
      "payable": false,
      "stateMutability": "view",
      "type": "function"
    },
    {
      "constant": false,
      "inputs": [
        {
          "internalType": "string",
          "name": "ipfsHash",
          "type": "string"
        },
        {
          "internalType": "string",
          "name": "account",
          "type": "string"
        }
      ],
      "name": "setOwner",
      "outputs": [],
      "payable": false,
      "stateMutability": "nonpayable",
      "type": "function"
    },
    {
      "constant": true,
      "inputs": [],
      "name": "getIpfsHashes",
      "outputs": [
        {
          "internalType": "int256[512][]",
          "name": "",
          "type": "int256[512][]"
        }
      ],
      "payable": false,
      "stateMutability": "view",
      "type": "function"
    },
    {
      "constant": false,
      "inputs": [
        {
          "internalType": "int256[512]",
          "name": "newValue",
          "type": "int256[512]"
        }
      ],
      "name": "pushToIpfsHashes",
      "outputs": [],
      "payable": false,
      "stateMutability": "nonpayable",
      "type": "function"
    },
    {
      "constant": true,
      "inputs": [],
      "name": "getIpfsHashesPublic",
      "outputs": [
        {
          "internalType": "int256[512][]",
          "name": "",
          "type": "int256[512][]"
        }
      ],
      "payable": false,
      "stateMutability": "view",
      "type": "function"
    },
    {
      "constant": false,
      "inputs": [
        {
          "internalType": "int256[512]",
          "name": "newValue",
          "type": "int256[512]"
        }
      ],
      "name": "pushToIpfsHashesPublic",
      "outputs": [],
      "payable": false,
      "stateMutability": "nonpayable",
      "type": "function"
    },
    {
      "constant": false,
      "inputs": [
        {
          "internalType": "int256[512]",
          "name": "newValue",
          "type": "int256[512]"
        },
        {
          "internalType": "string",
          "name": "ipfsHash",
          "type": "string"
        },
        {
          "internalType": "string",
          "name": "account",
          "type": "string"
        }
      ],
      "name": "uploadToPublic",
      "outputs": [],
      "payable": false,
      "stateMutability": "nonpayable",
      "type": "function"
    },
    {
      "constant": false,
      "inputs": [
        {
          "internalType": "int256[512]",
          "name": "newValue",
          "type": "int256[512]"
        },
        {
          "internalType": "string",
          "name": "ipfsHash",
          "type": "string"
        },
        {
          "internalType": "string",
          "name": "account",
          "type": "string"
        }
      ],
      "name": "uploadToPrivate",
      "outputs": [],
      "payable": false,
      "stateMutability": "nonpayable",
      "type": "function"
    }
  ],
  "bytecode": "0x608060405234801561001057600080fd5b50610ce5806100206000396000f3fe608060405234801561001057600080fd5b506004361061009e5760003560e01c80638a88a9ea116100665780638a88a9ea14610159578063a88e18a214610175578063b383140b14610191578063f6e4c600146101ad578063fea628bd146101cb5761009e565b806315718569146100a357806333caf1c1146100c15780634aaf4a12146100dd578063562890cc1461010d578063657a7ede14610129575b600080fd5b6100ab6101e7565b6040516100b89190610ae1565b60405180910390f35b6100db60048036036100d691908101906107bd565b61027a565b005b6100f760048036036100f29190810190610869565b6102bd565b6040516101049190610b03565b60405180910390f35b610127600480360361012291908101906108ff565b61037d565b005b610143600480360361013e9190810190610869565b6103b4565b6040516101509190610ae1565b60405180910390f35b610173600480360361016e91908101906107e7565b610465565b005b61018f600480360361018a91908101906107e7565b610486565b005b6101ab60048036036101a691908101906108aa565b61049e565b005b6101b56104fe565b6040516101c29190610ae1565b60405180910390f35b6101e560048036036101e091908101906107bd565b610591565b005b60606001805480602002602001604051908101604052809291908181526020016000905b82821015610271578382906000526020600020906102000201610200806020026040519081016040528092919082610200801561025d576020028201915b815481526020019060010190808311610249575b50505050508152602001906001019061020b565b50505050905090565b6001819080600181540180825580915050906001820390600052602060002090610200020160009091929091909150906102006102b89291906105d4565b505050565b60606002826040516102cf9190610aca565b90815260200160405180910390208054600181600116156101000203166002900480601f0160208091040260200160405190810160405280929190818152602001828054600181600116156101000203166002900480156103715780601f1061034657610100808354040283529160200191610371565b820191906000526020600020905b81548152906001019060200180831161035457829003601f168201915b50505050509050919050565b8060028360405161038e9190610aca565b908152602001604051809103902090805190602001906103af929190610615565b505050565b60606003826040516103c69190610aca565b9081526020016040518091039020805480602002602001604051908101604052809291908181526020016000905b8282101561045a5783829060005260206000209061020002016102008060200260405190810160405280929190826102008015610446576020028201915b815481526020019060010190808311610432575b5050505050815260200190600101906103f4565b505050509050919050565b61046e8361027a565b61047783610591565b610481828261037d565b505050565b61048f83610591565b610499828261037d565b505050565b6003826040516104ae9190610aca565b9081526020016040518091039020819080600181540180825580915050906001820390600052602060002090610200020160009091929091909150906102006104f89291906105d4565b50505050565b60606000805480602002602001604051908101604052809291908181526020016000905b828210156105885783829060005260206000209061020002016102008060200260405190810160405280929190826102008015610574576020028201915b815481526020019060010190808311610560575b505050505081526020019060010190610522565b50505050905090565b6000819080600181540180825580915050906001820390600052602060002090610200020160009091929091909150906102006105cf9291906105d4565b505050565b826102008101928215610604579160200282015b828111156106035782518255916020019190600101906105e8565b5b5090506106119190610695565b5090565b828054600181600116156101000203166002900490600052602060002090601f016020900481019282601f1061065657805160ff1916838001178555610684565b82800160010185558215610684579182015b82811115610683578251825591602001919060010190610668565b5b50905061069191906106ba565b5090565b6106b791905b808211156106b357600081600090555060010161069b565b5090565b90565b6106dc91905b808211156106d85760008160009055506001016106c0565b5090565b90565b600082601f8301126106f057600080fd5b6102006107046106ff82610b52565b610b25565b9150818385602084028201111561071a57600080fd5b60005b8381101561074a57816107308882610754565b84526020840193506020830192505060018101905061071d565b5050505092915050565b60008135905061076381610c8b565b92915050565b600082601f83011261077a57600080fd5b813561078d61078882610b74565b610b25565b915080825260208301602083018583830111156107a957600080fd5b6107b4838284610c38565b50505092915050565b600061400082840312156107d057600080fd5b60006107de848285016106df565b91505092915050565b600080600061404084860312156107fd57600080fd5b600061080b868287016106df565b93505061400084013567ffffffffffffffff81111561082957600080fd5b61083586828701610769565b92505061402084013567ffffffffffffffff81111561085357600080fd5b61085f86828701610769565b9150509250925092565b60006020828403121561087b57600080fd5b600082013567ffffffffffffffff81111561089557600080fd5b6108a184828501610769565b91505092915050565b60008061402083850312156108be57600080fd5b600083013567ffffffffffffffff8111156108d857600080fd5b6108e485828601610769565b92505060206108f5858286016106df565b9150509250929050565b6000806040838503121561091257600080fd5b600083013567ffffffffffffffff81111561092c57600080fd5b61093885828601610769565b925050602083013567ffffffffffffffff81111561095557600080fd5b61096185828601610769565b9150509250929050565b600061097783836109fa565b6140008301905092915050565b60006109908383610a51565b60208301905092915050565b60006109a782610bba565b6109b18185610bf6565b93506109bc83610ba0565b8060005b838110156109ed5781516109d4888261096b565b97506109df83610bdc565b9250506001810190506109c0565b5085935050505092915050565b610a0381610bc5565b610a0d8184610c07565b9250610a1882610bb0565b8060005b83811015610a49578151610a308782610984565b9650610a3b83610be9565b925050600181019050610a1c565b505050505050565b610a5a81610c2e565b82525050565b6000610a6b82610bd1565b610a758185610c12565b9350610a85818560208601610c47565b610a8e81610c7a565b840191505092915050565b6000610aa482610bd1565b610aae8185610c23565b9350610abe818560208601610c47565b80840191505092915050565b6000610ad68284610a99565b915081905092915050565b60006020820190508181036000830152610afb818461099c565b905092915050565b60006020820190508181036000830152610b1d8184610a60565b905092915050565b6000604051905081810181811067ffffffffffffffff82111715610b4857600080fd5b8060405250919050565b600067ffffffffffffffff821115610b6957600080fd5b602082029050919050565b600067ffffffffffffffff821115610b8b57600080fd5b601f19601f8301169050602081019050919050565b6000819050602082019050919050565b6000819050919050565b600081519050919050565b60006102009050919050565b600081519050919050565b6000602082019050919050565b6000602082019050919050565b600082825260208201905092915050565b600081905092915050565b600082825260208201905092915050565b600081905092915050565b6000819050919050565b82818337600083830152505050565b60005b83811015610c65578082015181840152602081019050610c4a565b83811115610c74576000848401525b50505050565b6000601f19601f8301169050919050565b610c9481610c2e565b8114610c9f57600080fd5b5056fea365627a7a7231582049f7b09bcb3ded6086fdb2e9ff9cb53e34c35d0dbd4024bd933e45622b2091c86c6578706572696d656e74616cf564736f6c63430005100040",
  "source": "pragma experimental ABIEncoderV2;\n\ncontract SimpleStorage {\n\n    //list of all images/files\n    int [512] [] private ipfsHashes;\n    \n    //list of all public images/files\n    int [512] [] private ipfsHashesPublic;\n\n    //map for storing owner information of every image/file\n    mapping (string => string) private owner;\n\n    //map for storing 'shared with me' information of every account\n    mapping (string => int [512][]) private shared;\n\n    //getter for shared map\n    function getShared(string memory account) public view returns (int [512][] memory) {\n        return shared[account];\n    }\n\n    //setter for shared map\n    function setShared(string memory account, int [512] memory hash) public {\n        shared[account].push(hash);\n    }\n\n    //getter for owner map\n    function getOwner(string memory ipfsHash) public view returns (string memory) {\n        return owner[ipfsHash];\n    }\n\n    //setter for owner map\n    function setOwner(string memory ipfsHash, string memory account) public {\n        owner[ipfsHash] = account;\n    }\n\n    //getter for IPFS hashes\n    function getIpfsHashes() public view returns (int [512][] memory) {\n        return ipfsHashes;\n    }\n\n    //setter for IPFS hashes\n    function pushToIpfsHashes(int [512] memory newValue) public {\n        ipfsHashes.push(newValue);\n    }\n\n    //getter for Public IPFS hashes\n    function getIpfsHashesPublic() public view returns (int [512][] memory) {\n        return ipfsHashesPublic;\n    }\n\n    //setter for Public IPFS hashes\n    function pushToIpfsHashesPublic(int [512] memory newValue) public {\n        ipfsHashesPublic.push(newValue);\n    }\n\n    //function to combine multiple transaction calls into single transaction\n    //In Case of Public: Push to IpfsHashes as well as IpfsHashesPublic\n    function uploadToPublic(int [512] memory newValue, string memory ipfsHash, string memory account) public {\n        pushToIpfsHashesPublic(newValue);\n        pushToIpfsHashes(newValue);\n        setOwner(ipfsHash, account);\n    }\n\n    //function to combine multiple transaction calls into single transaction\n    //In Case of Private: Push to only IpfsHashes\n    function uploadToPrivate(int [512] memory newValue, string memory ipfsHash, string memory account) public {\n        pushToIpfsHashes(newValue);\n        setOwner(ipfsHash, account);\n    }\n}\n",
  "sourcePath": "/Users/prateeksharma/Documents/Projects/ipfs_image_uploader/contracts/SimpleStorage.sol",
  "compiler": {
    "name": "solc",
    "version": "0.5.16+commit.9c3226ce.Emscripten.clang"
  },
  "schemaVersion": "3.4.6",
  "updatedAt": "2022-04-20T19:58:09.631Z",
  "networkType": "ethereum",
  "devdoc": {
    "methods": {}
  },
  "userdoc": {
    "methods": {}
  }
}