{
  "contractName": "User",
  "abi": [
    {
      "constant": true,
      "inputs": [],
      "name": "getUserId",
      "outputs": [
        {
          "internalType": "string",
          "name": "",
          "type": "string"
        }
      ],
      "payable": false,
      "stateMutability": "view",
      "type": "function"
    },
    {
      "constant": false,
      "inputs": [
        {
          "internalType": "string",
          "name": "_value",
          "type": "string"
        }
      ],
      "name": "setUserId",
      "outputs": [],
      "payable": false,
      "stateMutability": "nonpayable",
      "type": "function"
    },
    {
      "constant": true,
      "inputs": [],
      "name": "getUserName",
      "outputs": [
        {
          "internalType": "string",
          "name": "",
          "type": "string"
        }
      ],
      "payable": false,
      "stateMutability": "view",
      "type": "function"
    },
    {
      "constant": false,
      "inputs": [
        {
          "internalType": "string",
          "name": "_value",
          "type": "string"
        }
      ],
      "name": "setUserName",
      "outputs": [],
      "payable": false,
      "stateMutability": "nonpayable",
      "type": "function"
    }
  ],
  "bytecode": "0x608060405234801561001057600080fd5b506104dd806100206000396000f3fe608060405234801561001057600080fd5b506004361061004c5760003560e01c806312958f1c146100515780632b5914fe1461006f5780632ebcb6531461008b5780633b606a7a146100a9575b600080fd5b6100596100c5565b60405161006691906103b0565b60405180910390f35b61008960048036036100849190810190610336565b610167565b005b610093610181565b6040516100a091906103b0565b60405180910390f35b6100c360048036036100be9190810190610336565b610223565b005b606060018054600181600116156101000203166002900480601f01602080910402602001604051908101604052809291908181526020018280546001816001161561010002031660029004801561015d5780601f106101325761010080835404028352916020019161015d565b820191906000526020600020905b81548152906001019060200180831161014057829003601f168201915b5050505050905090565b806001908051906020019061017d92919061023d565b5050565b606060008054600181600116156101000203166002900480601f0160208091040260200160405190810160405280929190818152602001828054600181600116156101000203166002900480156102195780601f106101ee57610100808354040283529160200191610219565b820191906000526020600020905b8154815290600101906020018083116101fc57829003601f168201915b5050505050905090565b806000908051906020019061023992919061023d565b5050565b828054600181600116156101000203166002900490600052602060002090601f016020900481019282601f1061027e57805160ff19168380011785556102ac565b828001600101855582156102ac579182015b828111156102ab578251825591602001919060010190610290565b5b5090506102b991906102bd565b5090565b6102df91905b808211156102db5760008160009055506001016102c3565b5090565b90565b600082601f8301126102f357600080fd5b8135610306610301826103ff565b6103d2565b9150808252602083016020830185838301111561032257600080fd5b61032d838284610447565b50505092915050565b60006020828403121561034857600080fd5b600082013567ffffffffffffffff81111561036257600080fd5b61036e848285016102e2565b91505092915050565b60006103828261042b565b61038c8185610436565b935061039c818560208601610456565b6103a581610489565b840191505092915050565b600060208201905081810360008301526103ca8184610377565b905092915050565b6000604051905081810181811067ffffffffffffffff821117156103f557600080fd5b8060405250919050565b600067ffffffffffffffff82111561041657600080fd5b601f19601f8301169050602081019050919050565b600081519050919050565b600082825260208201905092915050565b82818337600083830152505050565b60005b83811015610474578082015181840152602081019050610459565b83811115610483576000848401525b50505050565b6000601f19601f830116905091905056fea365627a7a72315820d3da5175eb3ea50aa3a1a694a31235527c069339154bc0172e11edea61209ea06c6578706572696d656e74616cf564736f6c63430005100040",
  "source": "pragma experimental ABIEncoderV2;\n\ncontract User {\n    //account ID information\n    string userid;\n    string username;\n\n    function getUserId() public view returns (string memory) {\n        return userid;\n    }\n\n    function setUserId(string memory _value) public {\n        userid = _value;\n    }\n\n    function getUserName() public view returns (string memory) {\n        return username;\n    }\n\n    function setUserName(string memory _value) public {\n        username = _value;\n    }\n}\n",
  "sourcePath": "/Users/prateeksharma/Documents/Projects/ipfs_image_uploader/contracts/User.sol",
  "compiler": {
    "name": "solc",
    "version": "0.5.16+commit.9c3226ce.Emscripten.clang"
  },
  "schemaVersion": "3.4.6",
  "updatedAt": "2022-04-20T19:58:09.636Z",
  "networkType": "ethereum",
  "devdoc": {
    "methods": {}
  },
  "userdoc": {
    "methods": {}
  }
}